{"abi":[{"type":"constructor","inputs":[{"name":"_authorizedSigner","type":"address","internalType":"address"}],"stateMutability":"nonpayable"},{"type":"function","name":"authorizedSigner","inputs":[],"outputs":[{"name":"","type":"address","internalType":"address"}],"stateMutability":"view"},{"type":"function","name":"cancelTask","inputs":[{"name":"taskId","type":"bytes32","internalType":"bytes32"}],"outputs":[],"stateMutability":"nonpayable"},{"type":"function","name":"createTaskEscrow","inputs":[{"name":"taskId","type":"bytes32","internalType":"bytes32"},{"name":"borrower","type":"address","internalType":"address"},{"name":"lender","type":"address","internalType":"address"},{"name":"creditAmount","type":"uint256","internalType":"uint256"},{"name":"repayAmount","type":"uint256","internalType":"uint256"}],"outputs":[],"stateMutability":"nonpayable"},{"type":"function","name":"escrows","inputs":[{"name":"","type":"bytes32","internalType":"bytes32"}],"outputs":[{"name":"taskId","type":"bytes32","internalType":"bytes32"},{"name":"borrower","type":"address","internalType":"address"},{"name":"lender","type":"address","internalType":"address"},{"name":"creditAmount","type":"uint256","internalType":"uint256"},{"name":"repayAmount","type":"uint256","internalType":"uint256"},{"name":"spentAmount","type":"uint256","internalType":"uint256"},{"name":"revenue","type":"uint256","internalType":"uint256"},{"name":"state","type":"uint8","internalType":"enum KiteFuelEscrow.EscrowState"}],"stateMutability":"view"},{"type":"function","name":"exists","inputs":[{"name":"","type":"bytes32","internalType":"bytes32"}],"outputs":[{"name":"","type":"bool","internalType":"bool"}],"stateMutability":"view"},{"type":"function","name":"fundCredit","inputs":[{"name":"taskId","type":"bytes32","internalType":"bytes32"}],"outputs":[],"stateMutability":"payable"},{"type":"function","name":"markSpend","inputs":[{"name":"taskId","type":"bytes32","internalType":"bytes32"},{"name":"amount","type":"uint256","internalType":"uint256"},{"name":"provider","type":"address","internalType":"address"}],"outputs":[],"stateMutability":"nonpayable"},{"type":"function","name":"registerRevenue","inputs":[{"name":"taskId","type":"bytes32","internalType":"bytes32"}],"outputs":[],"stateMutability":"payable"},{"type":"function","name":"settle","inputs":[{"name":"taskId","type":"bytes32","internalType":"bytes32"}],"outputs":[],"stateMutability":"nonpayable"},{"type":"event","name":"CreditFunded","inputs":[{"name":"taskId","type":"bytes32","indexed":false,"internalType":"bytes32"},{"name":"amount","type":"uint256","indexed":false,"internalType":"uint256"}],"anonymous":false},{"type":"event","name":"EscrowCreated","inputs":[{"name":"taskId","type":"bytes32","indexed":false,"internalType":"bytes32"},{"name":"borrower","type":"address","indexed":false,"internalType":"address"},{"name":"lender","type":"address","indexed":false,"internalType":"address"},{"name":"creditAmount","type":"uint256","indexed":false,"internalType":"uint256"}],"anonymous":false},{"type":"event","name":"LenderRepaid","inputs":[{"name":"taskId","type":"bytes32","indexed":false,"internalType":"bytes32"},{"name":"amount","type":"uint256","indexed":false,"internalType":"uint256"}],"anonymous":false},{"type":"event","name":"RemainderReleased","inputs":[{"name":"taskId","type":"bytes32","indexed":false,"internalType":"bytes32"},{"name":"amount","type":"uint256","indexed":false,"internalType":"uint256"}],"anonymous":false},{"type":"event","name":"RevenueRegistered","inputs":[{"name":"taskId","type":"bytes32","indexed":false,"internalType":"bytes32"},{"name":"amount","type":"uint256","indexed":false,"internalType":"uint256"}],"anonymous":false},{"type":"event","name":"SpendRecorded","inputs":[{"name":"taskId","type":"bytes32","indexed":false,"internalType":"bytes32"},{"name":"amount","type":"uint256","indexed":false,"internalType":"uint256"},{"name":"provider","type":"address","indexed":false,"internalType":"address"}],"anonymous":false},{"type":"error","name":"InsufficientFunds","inputs":[]},{"type":"error","name":"InvalidState","inputs":[]},{"type":"error","name":"NotAuthorized","inputs":[]},{"type":"error","name":"NotLender","inputs":[]},{"type":"error","name":"OverSpendLimit","inputs":[]},{"type":"error","name":"RepayFirst","inputs":[]},{"type":"error","name":"TaskAlreadyExists","inputs":[]},{"type":"error","name":"TaskNotFound","inputs":[]}],"bytecode":{"object":"0x60a060405234801561000f575f5ffd5b50604051611506380380611506833981810160405281019061003191906100c9565b8073ffffffffffffffffffffffffffffffffffffffff1660808173ffffffffffffffffffffffffffffffffffffffff1681525050506100f4565b5f5ffd5b5f73ffffffffffffffffffffffffffffffffffffffff82169050919050565b5f6100988261006f565b9050919050565b6100a88161008e565b81146100b2575f5ffd5b50565b5f815190506100c38161009f565b92915050565b5f602082840312156100de576100dd61006b565b5b5f6100eb848285016100b5565b91505092915050565b6080516113f36101135f395f8181610273015261097801526113f35ff3fe608060405260043610610085575f3560e01c8063987757dd11610058578063987757dd1461014c578063c771909c14610174578063d0452a591461019e578063d58ddf78146101c6578063ee8ca3b5146101e257610085565b80631e381c3f146100895780632d83549c146100b157806338a699a4146100f45780637455344514610130575b5f5ffd5b348015610094575f5ffd5b506100af60048036038101906100aa9190611031565b61020a565b005b3480156100bc575f5ffd5b506100d760048036038101906100d29190611081565b61040c565b6040516100eb98979695949392919061114c565b60405180910390f35b3480156100ff575f5ffd5b5061011a60048036038101906101159190611081565b610499565b60405161012791906111e2565b60405180910390f35b61014a60048036038101906101459190611081565b6104b6565b005b348015610157575f5ffd5b50610172600480360381019061016d9190611081565b6106e4565b005b34801561017f575f5ffd5b50610188610976565b60405161019591906111fb565b60405180910390f35b3480156101a9575f5ffd5b506101c460048036038101906101bf9190611214565b61099a565b005b6101e060048036038101906101db9190611081565b610bd1565b005b3480156101ed575f5ffd5b5061020860048036038101906102039190611081565b610cfd565b005b60015f8481526020019081526020015f205f9054906101000a900460ff1661025e576040517fc325ae3300000000000000000000000000000000000000000000000000000000815260040160405180910390fd5b5f5f5f8581526020019081526020015f2090507f000000000000000000000000000000000000000000000000000000000000000073ffffffffffffffffffffffffffffffffffffffff163373ffffffffffffffffffffffffffffffffffffffff16146102f6576040517fea8e4eb500000000000000000000000000000000000000000000000000000000815260040160405180910390fd5b6002600481111561030a576103096110d9565b5b816007015f9054906101000a900460ff16600481111561032d5761032c6110d9565b5b14610364576040517fbaf3f0f700000000000000000000000000000000000000000000000000000000815260040160405180910390fd5b806003015483826005015461037991906112b8565b11156103b1576040517ff05dc8fb00000000000000000000000000000000000000000000000000000000815260040160405180910390fd5b82816005015f8282546103c491906112b8565b925050819055507fbbe262a88d171b2818da01155d9e9b2e0b31e96040f88e669b1cece5d4e8127d8484846040516103fe939291906112eb565b60405180910390a150505050565b5f602052805f5260405f205f91509050805f015490806001015f9054906101000a900473ffffffffffffffffffffffffffffffffffffffff1690806002015f9054906101000a900473ffffffffffffffffffffffffffffffffffffffff1690806003015490806004015490806005015490806006015490806007015f9054906101000a900460ff16905088565b6001602052805f5260405f205f915054906101000a900460ff1681565b60015f8281526020019081526020015f205f9054906101000a900460ff1661050a576040517fc325ae3300000000000000000000000000000000000000000000000000000000815260040160405180910390fd5b5f5f5f8381526020019081526020015f209050806002015f9054906101000a900473ffffffffffffffffffffffffffffffffffffffff1673ffffffffffffffffffffffffffffffffffffffff163373ffffffffffffffffffffffffffffffffffffffff16146105a5576040517f8c38000300000000000000000000000000000000000000000000000000000000815260040160405180910390fd5b5f60048111156105b8576105b76110d9565b5b816007015f9054906101000a900460ff1660048111156105db576105da6110d9565b5b14610612576040517fbaf3f0f700000000000000000000000000000000000000000000000000000000815260040160405180910390fd5b8060030154341461064f576040517f356680b700000000000000000000000000000000000000000000000000000000815260040160405180910390fd5b6001816007015f6101000a81548160ff02191690836004811115610676576106756110d9565b5b02179055506002816007015f6101000a81548160ff021916908360048111156106a2576106a16110d9565b5b02179055507f3f47b42571f8dea352ba418cb168a672aa515e11922f9aef86f208350889fa6c82346040516106d8929190611320565b60405180910390a15050565b60015f8281526020019081526020015f205f9054906101000a900460ff16610738576040517fc325ae3300000000000000000000000000000000000000000000000000000000815260040160405180910390fd5b5f5f5f8381526020019081526020015f2090506002600481111561075f5761075e6110d9565b5b816007015f9054906101000a900460ff166004811115610782576107816110d9565b5b146107b9576040517fbaf3f0f700000000000000000000000000000000000000000000000000000000815260040160405180910390fd5b5f8160040154826006015410156107d45781600601546107da565b81600401545b9050816002015f9054906101000a900473ffffffffffffffffffffffffffffffffffffffff1673ffffffffffffffffffffffffffffffffffffffff166108fc8290811502906040515f60405180830381858888f19350505050158015610842573d5f5f3e3d5ffd5b507ffce06861c544e43afc06d3f326198d2de5d631187837470f5a9fe00dbcecf6ed8382604051610874929190611320565b60405180910390a1816004015482600601541115610945575f826004015483600601546108a19190611347565b9050826001015f9054906101000a900473ffffffffffffffffffffffffffffffffffffffff1673ffffffffffffffffffffffffffffffffffffffff166108fc8290811502906040515f60405180830381858888f19350505050158015610909573d5f5f3e3d5ffd5b507f0b117cb5a48f44ca6b459cc2845b32a22b5da68927c0adb39e029dd5f73d7426848260405161093b929190611320565b60405180910390a1505b6003826007015f6101000a81548160ff0219169083600481111561096c5761096b6110d9565b5b0217905550505050565b7f000000000000000000000000000000000000000000000000000000000000000081565b60015f8681526020019081526020015f205f9054906101000a900460ff16156109ef576040517ff2e16b0300000000000000000000000000000000000000000000000000000000815260040160405180910390fd5b6040518061010001604052808681526020018573ffffffffffffffffffffffffffffffffffffffff1681526020018473ffffffffffffffffffffffffffffffffffffffff1681526020018381526020018281526020015f81526020015f81526020015f6004811115610a6457610a636110d9565b5b8152505f5f8781526020019081526020015f205f820151815f01556020820151816001015f6101000a81548173ffffffffffffffffffffffffffffffffffffffff021916908373ffffffffffffffffffffffffffffffffffffffff1602179055506040820151816002015f6101000a81548173ffffffffffffffffffffffffffffffffffffffff021916908373ffffffffffffffffffffffffffffffffffffffff160217905550606082015181600301556080820151816004015560a0820151816005015560c0820151816006015560e0820151816007015f6101000a81548160ff02191690836004811115610b5d57610b5c6110d9565b5b02179055509050506001805f8781526020019081526020015f205f6101000a81548160ff0219169083151502179055507f0dd968c277d9dc6b36b6ec2b638324c3d937882c64ca109440bc050ebf26cb0785858585604051610bc2949392919061137a565b60405180910390a15050505050565b60015f8281526020019081526020015f205f9054906101000a900460ff16610c25576040517fc325ae3300000000000000000000000000000000000000000000000000000000815260040160405180910390fd5b5f5f5f8381526020019081526020015f20905060026004811115610c4c57610c4b6110d9565b5b816007015f9054906101000a900460ff166004811115610c6f57610c6e6110d9565b5b14610ca6576040517fbaf3f0f700000000000000000000000000000000000000000000000000000000815260040160405180910390fd5b34816006015f828254610cb991906112b8565b925050819055507fba7db3c348f2a6826c15697d5d3d16b561f47ce51e4d6fc33d0004fb3519261b8234604051610cf1929190611320565b60405180910390a15050565b60015f8281526020019081526020015f205f9054906101000a900460ff16610d51576040517fc325ae3300000000000000000000000000000000000000000000000000000000815260040160405180910390fd5b5f5f5f8381526020019081526020015f2090505f6004811115610d7757610d766110d9565b5b816007015f9054906101000a900460ff166004811115610d9a57610d996110d9565b5b03610dd0576004816007015f6101000a81548160ff02191690836004811115610dc657610dc56110d9565b5b0217905550610f69565b60016004811115610de457610de36110d9565b5b816007015f9054906101000a900460ff166004811115610e0757610e066110d9565b5b1480610e47575060026004811115610e2257610e216110d9565b5b816007015f9054906101000a900460ff166004811115610e4557610e446110d9565b5b145b15610f36575f8160050154141580610e6357505f816006015414155b15610e9a576040517fbaf3f0f700000000000000000000000000000000000000000000000000000000815260040160405180910390fd5b806002015f9054906101000a900473ffffffffffffffffffffffffffffffffffffffff1673ffffffffffffffffffffffffffffffffffffffff166108fc826003015490811502906040515f60405180830381858888f19350505050158015610f04573d5f5f3e3d5ffd5b506004816007015f6101000a81548160ff02191690836004811115610f2c57610f2b6110d9565b5b0217905550610f68565b6040517fbaf3f0f700000000000000000000000000000000000000000000000000000000815260040160405180910390fd5b5b5050565b5f5ffd5b5f819050919050565b610f8381610f71565b8114610f8d575f5ffd5b50565b5f81359050610f9e81610f7a565b92915050565b5f819050919050565b610fb681610fa4565b8114610fc0575f5ffd5b50565b5f81359050610fd181610fad565b92915050565b5f73ffffffffffffffffffffffffffffffffffffffff82169050919050565b5f61100082610fd7565b9050919050565b61101081610ff6565b811461101a575f5ffd5b50565b5f8135905061102b81611007565b92915050565b5f5f5f6060848603121561104857611047610f6d565b5b5f61105586828701610f90565b935050602061106686828701610fc3565b92505060406110778682870161101d565b9150509250925092565b5f6020828403121561109657611095610f6d565b5b5f6110a384828501610f90565b91505092915050565b6110b581610f71565b82525050565b6110c481610ff6565b82525050565b6110d381610fa4565b82525050565b7f4e487b71000000000000000000000000000000000000000000000000000000005f52602160045260245ffd5b60058110611117576111166110d9565b5b50565b5f81905061112782611106565b919050565b5f6111368261111a565b9050919050565b6111468161112c565b82525050565b5f610100820190506111605f83018b6110ac565b61116d602083018a6110bb565b61117a60408301896110bb565b61118760608301886110ca565b61119460808301876110ca565b6111a160a08301866110ca565b6111ae60c08301856110ca565b6111bb60e083018461113d565b9998505050505050505050565b5f8115159050919050565b6111dc816111c8565b82525050565b5f6020820190506111f55f8301846111d3565b92915050565b5f60208201905061120e5f8301846110bb565b92915050565b5f5f5f5f5f60a0868803121561122d5761122c610f6d565b5b5f61123a88828901610f90565b955050602061124b8882890161101d565b945050604061125c8882890161101d565b935050606061126d88828901610fc3565b925050608061127e88828901610fc3565b9150509295509295909350565b7f4e487b71000000000000000000000000000000000000000000000000000000005f52601160045260245ffd5b5f6112c282610fa4565b91506112cd83610fa4565b92508282019050808211156112e5576112e461128b565b5b92915050565b5f6060820190506112fe5f8301866110ac565b61130b60208301856110ca565b61131860408301846110bb565b949350505050565b5f6040820190506113335f8301856110ac565b61134060208301846110ca565b9392505050565b5f61135182610fa4565b915061135c83610fa4565b92508282039050818111156113745761137361128b565b5b92915050565b5f60808201905061138d5f8301876110ac565b61139a60208301866110bb565b6113a760408301856110bb565b6113b460608301846110ca565b9594505050505056fea2646970667358221220da87b22b0fc0fd77fee09a885aa60bf54d020c5e82e98ddf1d068ea11035508664736f6c63430008210033","linkReferences":{}},"methodIdentifiers":{"authorizedSigner()":"c771909c","cancelTask(bytes32)":"ee8ca3b5","createTaskEscrow(bytes32,address,address,uint256,uint256)":"d0452a59","escrows(bytes32)":"2d83549c","exists(bytes32)":"38a699a4","fundCredit(bytes32)":"74553445","markSpend(bytes32,uint256,address)":"1e381c3f","registerRevenue(bytes32)":"d58ddf78","settle(bytes32)":"987757dd"},"id":0}